:020000040800F2
:1000000088060020650100088B0100088D010008AA
:1000100000000000000000000000000000000000E0
:100020000000000000000000000000008F01000838
:10003000000000000000000091010008930100088A
:100040009501000895010008950100089501000838
:100050009501000895010008950100089501000828
:100060009501000895010008950100089501000818
:100070009501000895010008950100089108000805
:100080009501000800000000000000009501000834
:1000900000000000950100086D08000895010008A7
:1000A0000000000095010008950100089501000876
:1000B0009501000800000000950100089501000866
:1000C00000F002F800F03EF80CA030C80838241800
:1000D0002D18A246671EAB4654465D46AC4201D180
:1000E00000F030F87E460F3E0FCCB6460126334274
:1000F00000D0FB1AA246AB4633431847AC200000A1
:10010000CC200000103A02D378C878C1FAD8520740
:1001100001D330C830C101D504680C6070470000BD
:100120000023002400250026103A01D378C1FBD813
:10013000520700D330C100D50B6070471FB51FBDFB
:1001400010B510BD00F0DEF91146FFF7F7FF01F022
:10015000E3FC00F0F6F903B4FFF7F2FF03BC00F094
:100160002BFA00000F4880F308880F480168090E39
:100170000E4A914205D10E480E4901600E480F49C2
:1001800001600F4880470F480047FEE7FEE7FEE7A3
:10019000FEE7FEE7FEE700000B480C490C4A0D4B5A
:1001A0007047000088060020040000001F000000C7
:1001B0001810024001000000000001400000000093
:1001C000F9070008C1000008880000208806002008
:1001D0008802002088020020002203098B422CD3D1
:1001E000030A8B4211D300239C464EE003460B4387
:1001F0003CD4002243088B4231D303098B421CD3E9
:10020000030A8B4201D394463FE0C3098B4201D3DA
:10021000CB01C01A524183098B4201D38B01C01A12
:10022000524143098B4201D34B01C01A5241030989
:100230008B4201D30B01C01A5241C3088B4201D338
:10024000CB00C01A524183088B4201D38B00C01AE5
:10025000524143088B4201D34B00C01A5241411A0C
:1002600000D201465241104670475DE0CA0F00D0EF
:100270004942031000D34042534000229C460309E8
:100280008B422DD3030A8B4212D3FC22890112BA6E
:10029000030A8B420CD3890192118B4208D3890146
:1002A00092118B4204D389013AD0921100E089095E
:1002B000C3098B4201D3CB01C01A524183098B423F
:1002C00001D38B01C01A524143098B4201D34B0128
:1002D000C01A524103098B4201D30B01C01A52418B
:1002E000C3088B4201D3CB00C01A524183088B4212
:1002F00001D38B00C01A5241D9D243088B4201D39B
:100300004B00C01A5241411A00D201466346524185
:100310005B10104601D34042002B00D54942704784
:1003200063465B1000D3404201B50020C046C04682
:1003300002BD7047704770470121C905012341186C
:1003400042001B06D3185B0E0AD0C1100722D2064A
:10035000891840075242D14201D55200891870478E
:10036000090208D50146002A03D0C10FC9070020A1
:10037000704710467047420202D000200249704781
:10038000072109050143F4E70000F87F0102C215C7
:1003900004D00123DB071943002A0ADB9E239A1AA3
:1003A00002D40846D0407047FF2241001206914215
:1003B00001D900207047C017C0437047F8B5224CE0
:1003C0004E00069DA6420AD8A64201D1002806D1B9
:1003D0005E00A64203D8A6420AD1002A08D00D2406
:1003E000240425422CD02946002000F061F8F8BDF5
:1003F0000C461C430CD4994202D0EFF30080F8BDA8
:10040000904202D0EFF30080F8BDEFF30080F8BD1A
:1004100009242407E5008B4206D0EFF30080A043B7
:10042000591A06D2284304E0101A05D3EFF30080CE
:10043000A04380F30088F8BDEFF30080A043F1E70C
:10044000009500F04DF8F8BD0000E0FF10B5FF2367
:100450001B0644009C421DD84C009C421AD80346FF
:10046000124A0B4307D4401A02D3EFF3008010BDA9
:10047000EFF3008010BD081A06D2EFF300800121CF
:100480009043C907084302E0EFF30080904380F3F4
:10049000008810BD0D231B041A4204D01146002011
:1004A00000F006F810BD00F025F810BD0000009027
:1004B000C80212D54803400F002804D0C803C04327
:1004C000012188407047EFF30080000100090321FB
:1004D0000907084380F30088704700207047000038
:1004E00010B500200249029A00F033F810BD000058
:1004F0000000F87F10B5024800F02BF810BD000096
:100500000000C07F754600F053F8AE46050069460E
:100510005346C008C000854618B020B5FFF73CFE22
:1005200060BC00274908B6460026C0C5C0C5C0C586
:10053000C0C5C0C5C0C5C0C5C0C5403D49008D4689
:10054000704710B50446C046C0462046FFF703FE7C
:1005500010BD10B50C461107090F092904D00A294E
:100560000AD008290CD104E011460820FFF7A0FFAB
:1005700006E0510606D501E0510601D50120C0076D
:10058000214610BDD10607D501010909CC0849074C
:10059000000E0006044309E0410F20024907000A4B
:1005A0000143200E00061D22D14101430846E7E722
:1005B000004870472400002001491820ABBEFEE728
:1005C00026000200704700B50346802000F044F882
:1005D000184600F041F800BD00BF0D4880690121B8
:1005E000C90308400028F8D1094840680949084073
:1005F000074948600846406807490843044948607D
:1006000000BF03488069402108400028F9D17047A5
:10061000005400400078FFFF7820FF0000BF0D4825
:100620008069C007C00F0028F9D00A48406801213E
:10063000890308430749486000BF064880692021B4
:1006400008400028F9D00348C06908430149C8613F
:10065000704700000054004000BF08498969C9077D
:10066000C90F0029F9D00549886200BF034989698B
:10067000402211400029F9D1704700000054004089
:1006800070B506460C46FFF7A7FF4020FFF7E4FFD2
:1006900000231DE03046203881004018C0180F4963
:1006A0000D5C002C04D0E943C8B2FFF7D5FF02E08F
:1006B0002846FFF7D1FF042B08D1002C03D0FF20E0
:1006C000FFF7CAFF02E00020FFF7C6FF581CC3B2C5
:1006D000052BDFDBFFF7A2FF70BD0000461D000801
:1006E00030B5002417E0FFF777FF2020FFF76BFFFE
:1006F0000020FFF768FF4020FFF7AEFF002504E071
:100700000020FFF7A9FF681CC5B2802DF8DBFFF7BA
:1007100085FF601CC4B2082CE5DB30BD30B5044653
:100720000D46FFF759FF0F2C06DD21111022114352
:100730000846FFF748FF02E01020FFF744FF2007BC
:10074000000FFFF740FFB02129430846FFF73BFFAA
:10075000FFF764FF30BD000010B5FFF73DFFAE208E
:10076000FFF731FF002405E00549085DFFF72BFF87
:10077000601CC4B2122CF7D9FFF750FF10BD000067
:10078000341D0008FEB505460E460124002700BFB3
:100790000A2D0EDB0A212846FFF728FDCFB2384686
:1007A0003030694608550A212846FFF71FFD0546E7
:1007B00004E028463030694608550025601CC4B264
:1007C000002DE5D1601EC4B200BF6946085D314608
:1007D000FFF756FF601EC4B2002CF6D1FEBD30B547
:1007E00004460D4604E020782946FFF749FF641CC3
:1007F00020780028F7D130BD19480068012108434E
:10080000174908600846406816490840144948607E
:100810000846006814490840114908600846006805
:100820000121890488430E490860084640683F2139
:10083000090488430A4948600846C06A0009000163
:10084000C8620846006BFF21D4318843044908631D
:100850000846406B400840004863002088607047AD
:10086000001002400CB8FF08FFFFF6FE00B5074875
:100870000069C007C00F002807D000F00DF803483A
:100880000069400840000149086100BD004801407E
:10089000012080070069704710480088002804D0B4
:1008A0000E480088401E0D4908800D480088002829
:1008B0000ED1FF20F5300A4908800A48406901211D
:1008C00048400849486108480088401C064908809B
:1008D00003480088401E0249088070470400002039
:1008E0000600002000040048080000200146C8B2AD
:1008F000FF2212020A4012129040401C80B2704740
:1009000010B501460022002300290CD04A1E01E048
:1009100052085B1C100A00020028F9D11802D4B258
:10092000204380B210BD0020FCE70000F0B58DB080
:10093000244D0F26B601A527BF0023480490224866
:1009400064300390384602901F48283801901F4CAD
:100950000BA800F03FF805A90BA800F050F808A874
:10096000007B002803D0184908984018041908A8EB
:10097000807B002806D01449643108984018400054
:10098000041908E008A8407B002804D0A5218900AC
:1009900008984018041908A8C07B002804D0A52195
:1009A000890009984018041908A8007C002804D080
:1009B000054928390A98401804190548C46020469A
:1009C0000DB0F0BD760700004E020000360B0000AF
:1009D0001000002030B50446012000F007FC054659
:1009E000E806C00F20702807C00FA0706807C00F6E
:1009F00060706806C00FE070E811207130BD70B5FE
:100A000005460C46002000F09BF82080462000F0B0
:100A1000EDFB401CA0802178A08800F0EFFDE06095
:100A2000512000F091FC0646FFF760FFE08021783E
:100A3000E08800F0E3FD2061012000F081F8608093
:100A4000712000F081FC0646FFF750FF2081E87816
:100A5000002803D02089E188401A2081A1782089CC
:100A600000F0CCFD606170BDF0B505460E46012179
:100A7000802000F067FE0121FF2000F063FE0021CE
:100A8000084600F05FFE0621FF2000F05BFE832099
:100A900000F0ACFB0421084307463946832000F0F0
:100AA00051FE0721FF2000F04DFE0121812000F0C2
:100AB00049FE0121802000F045FE6B21942000F0CA
:100AC00041FE0021832000F03DFE00201B49C8802C
:100AD00000BF832000F08AFB0028FAD00121832088
:100AE00000F030FE922000F081FB04466006400ECC
:100AF0002870E01130700021812000F023FE0621D3
:100B0000FF2000F01FFE832000F070FB07463946EF
:100B1000832000F017FE0121FF2000F013FE0121C9
:100B2000002000F00FFE0021FF2000F00BFE00214E
:100B3000802000F007FE0120F0BD00001000002022
:100B400010B50446002C05D1502000F04FFB401C8E
:100B5000400010BD012C05D1702000F047FB401C67
:100B60004000F6E7FF20F4E7F0B585B00546002D1C
:100B700009D0892000F03AFB01210843064631469E
:100B8000892000F0DFFD0021882000F0DBFD01213D
:100B9000802000F0D7FD0121FF2000F0D3FD0021CF
:100BA000084600F0CFFD912000F020FBF7490872C5
:100BB0000121002000F0C6FD0021FF2000F0C2FD51
:100BC0000021802000F0BEFD602000F00FFB12210C
:100BD000084306463146602000F0B4FD7D20C00584
:100BE00000F0E6FCFF21012000F0ACFD03A904A801
:100BF000FFF73AFF002801D105B0F0BD062201A998
:100C0000B02000F0F5F90121FF2000F09BFD00214C
:100C10004F2000F097FD2C214E2000F093FD002185
:100C2000FF2000F08FFDB421B62000F08BFD684658
:100C3000007B002801D00C2000E000200090002460
:100C4000002034E00099884203DB6946097C8C422D
:100C500017D10146C3175B0F5B18DB1001AEF35CC5
:100C60000246C617760FB618F610F600871B012647
:100C7000BE40B343C617760F7618F61001AFBB55CA
:100C800013E0C3175B0F1B18DB1001AEF35C0146CA
:100C9000C617760F7618F610F600861B3341DB0771
:100CA000DB0F002B01D0611CCCB2411CC8B2302834
:100CB000C8DB062201A9B02000F0D8FC0121FF20EA
:100CC00000F040FD0021084600F03CFD0021FF201F
:100CD00000F038FD0021092000F034FD0021102033
:100CE00000F030FD0021112000F02CFD0121242016
:100CF00000F028FDFF21252000F024FD00217520B3
:100D000000F020FD0121FF2000F01CFD2C214E20D1
:100D100000F018FD0021482000F014FD20213020B3
:100D200000F010FD0021FF2000F00CFD0921302013
:100D300000F008FD0021542000F004FD04213120C2
:100D400000F000FD0321322000F0FCFC8321402054
:100D500000F0F8FC2521462000F0F4FC0021602082
:100D600000F0F0FC0021272000F0ECFC06215020D0
:100D700000F0E8FC0021512000F0E4FC9621522014
:100D800000F0E0FC0821562000F0DCFC3021572068
:100D900000F0D8FC0021612000F0D4FC002162208A
:100DA00000F0D0FC0021642000F0CCFC0021652084
:100DB00000F0C8FCA021662000F0C4FC0121FF2047
:100DC00000F0C0FC3221222000F0BCFC142147209E
:100DD00000F0B8FCFF21492000F0B4FC00214A20BB
:100DE00000F0B0FC0021FF2000F0ACFC0A217A20CA
:100DF00000F0A8FC00217B2000F0A4FC2121782039
:100E000000F0A0FC0121FF2000F09CFC34212320F5
:100E100000F098FC0021422000F094FCFF214420C7
:100E200000F090FC2621452000F08CFC0521462096
:100E300000F088FC4021084600F084FC06210E20CA
:100E400000F080FC1A21202000F07CFC402143208F
:100E500000F078FC0021FF2000F074FC0321342016
:100E600000F070FC4421352000F06CFC0121FF20D3
:100E700000F068FC0421312000F064FC09214B20C3
:100E800000F060FC05214C2000F05CFC04214D20AA
:100E900000F058FC0021FF2000F054FC0021442009
:100EA00000F050FC2021452000F04CFC0821472098
:100EB00000F048FC2821482000F044FC0021672075
:100EC00000F040FC0421702000F03CFC0121712066
:100ED00000F038FCFE21722000F034FC0021762066
:100EE00000F030FC0021772000F02CFC0121FF20D5
:100EF00000F028FC01210D2000F024FC0021FF203F
:100F000000F020FC0121802000F01CFCF8210120D1
:100F100000F018FC0121FF2000F014FC01218E20BC
:100F200000F010FC0121002000F00CFC0021FF204B
:100F300000F008FC0021802000F004FC04210A20BD
:100F400000F000FC842000F051F91021884306468F
:100F50003146842000F0F6FB01210B2000F0F2FB6B
:100F6000FFF7E4FC0949C860E821012000F0EAFB32
:100F70000649C86800F0A0FA0121084600F0E2FB2B
:100F8000402000F015F8002802D135E610000020BE
:100F90000221012000F0D6FB002000F009F8002813
:100FA00000D129E6E821012000F0CCFB012023E656
:100FB00010B50446012020430146002000F0C2FB8A
:100FC00000200A49C88000BF132000F00FF9400735
:100FD000400F0028F8D001210B2000F0B3FB0021C6
:100FE000084600F0AFFB012010BD000010000020FB
:100FF00030B500BF544B9B690124E4032340002B10
:10100000F8D1514B5B68514C23404F4C63602346F1
:101010005B684F4C2478FF252D04641901256D036E
:101020002C432343484C636000BF474B9B694024DB
:101030002340002BF9D100BF434B9B69DB07DB0F3B
:10104000002BF9D0404B986200BF3F4B9B69402476
:101050002340002BF9D100BF3B4B9B69DB07DB0F23
:10106000002BF9D0384B5B680124A4032343364C92
:10107000636000BF344B9B6920242340002BF9D0D0
:10108000314BDB692343304CE36100BF2E4B9B693E
:101090000124E4032340002BF8D12B4B5B682D4C3B
:1010A0002340294C636023465B6824152343264C68
:1010B0006360274B1B7814042343012464032343F8
:1010C000214C64682343204C636000BF1E4B9B6926
:1010D00040242340002BF9D10AE000BF1A4B9B6942
:1010E00004242340002BF9D0174B5B6A0B70491C7A
:1010F0001346541EE2B2002BEFDC00BF124B9B697B
:10110000DB07DB0F002BF9D00F4B5B680124A40336
:1011100023430D4C636000BF0B4B9B69202423408D
:10112000002BF9D0084BDB692343074CE3612346CE
:101130005B68E413A343044C636023465B68241597
:10114000A343014C636030BD0054004000F800FF31
:101150001000002000FC00FF10B500200949C880E5
:1011600000BF132000F042F84007400F0028F8D0DD
:101170001E2000F0E9F8044601210B2000F0E2FAFD
:10118000204610BD1000002000B50121802000F095
:10119000D9FA0121FF2000F0D5FA0021084600F01D
:1011A000D1FA1148017A912000F0CCFA01210020F7
:1011B00000F0C8FA0021FF2000F0C4FA00218020CE
:1011C00000F0C0FA0121002000F0BCFA002006491E
:1011D000C88000BF002000F009F8C007C00F002839
:1011E000F8D1FFF7B9FF00BD1000002010B501468F
:1011F00000BF514A92690123DB031A40002AF8D14B
:101200004D4A52684D4B1A404B4B5A601A46526831
:101210004B4B1B780124E4051B19A41223431A43EA
:10122000454B5A6000BF444A926940231A40002A45
:10123000F9D100BF404A9269D207D20F002AF9D0F3
:101240003D4A916200BF3C4A926940231A40002AFD
:10125000F9D100BF384A9269D207D20F002AF9D0DB
:10126000354A526801239B031A43334B5A6000BF2F
:10127000314A926920231A40002AF9D02E4AD269B5
:101280001A432D4BDA6100BF2B4A92690123DB031D
:101290001A40002AF8D1284A52682A4B1A40264B95
:1012A0005A601A4652681B151A43234B5A601A4655
:1012B0005268234B1B78012424041B19E410234398
:1012C0001A431D4B5A6000BF1B4A926940231A40C3
:1012D000002AF9D100BF184A926904231A40002A53
:1012E000F9D0154A526AD0B200BF134A9269D207A8
:1012F000D20F002AF9D0104A526801239B031A43E7
:101300000D4B5A6000BF0C4A926920231A40002AF4
:10131000F9D0094AD2691A43074BDA611A46526872
:10132000DB139A43044B5A601A4652681B159A43C2
:10133000014B5A6010BD00000054004000F800FF4F
:101340001000002000FC00FF10B5024600BF564907
:1013500089690123DB0319400029F8D15249496802
:10136000524B1940504B596019464968504B1B78F5
:101370000124E4051B19A412234319434A4B596065
:1013800000BF49498969402319400029F9D100BFAC
:1013900045498969C907C90F0029F9D042498A62BC
:1013A00000BF41498969402319400029F9D100BF94
:1013B0003D498969C907C90F0029F9D03A494968E7
:1013C00001239B031943384B596000BF3649896993
:1013D000202319400029F9D03349C9691943324BF8
:1013E000D96100BF304989690123DB031940002915
:1013F000F8D12D4949682F4B19402B4B596019469C
:1014000049681B151943284B596019464968284BF0
:101410001B78012464041B19241123431943224B14
:10142000596000BF20498969402319400029F9D13A
:10143000002002210EE000BF1B4B9B6904242340C7
:10144000002BF9D0184B5B6A4C1EE400A3409BB202
:101450001843491E0029EED100BF13498969C90705
:10146000C90F0029F9D01049496801239B0319438A
:101470000D4B596000BF0C49896920231940002990
:10148000F9D00949C9691943074BD9611946496817
:10149000DB139943044B5960194649681B1599435E
:1014A000014B596010BD00000054004000F800FFDF
:1014B0001000002000FC00FFF0B591B00546A5200B
:1014C000C00008900F2080010790A52080000690A2
:1014D00033480590324864300490A5208000039082
:1014E0002F48283802902F480190854202D20020D0
:1014F00011B0F0BD2C4C0FA8FFF76CFA09A90FA88A
:10150000FFF77DFA08A8007F002803D024490C9833
:101510004018041908A8807F002806D020496431AB
:101520000C9840184000041908E008A8407F0028E3
:1015300004D0A52189000C984018041908A8C07F80
:10154000002804D0A52189000D984018041910A87E
:101550000078002821D0124828382418AC4201D93C
:101560000020C5E72F1B6846C08CC1B2384600F08A
:1015700061F886B208A8C07F002803D06846408D75
:10158000801986B23046FFF7BBF901460090712002
:1015900000F03CF90548C56000BF0120A8E7000045
:1015A0004E020000204E0000E8080000100000205D
:1015B00070B506460021304600F03AFB08D33046AD
:1015C000FEF7BAFE04460B4A0B4B00F0FDFA01D2BF
:1015D000002070BD43210906304600F053FB05464C
:1015E000FEF7D4FE84B22146442000F00FF901201A
:1015F000EFE70000A4703D0AD7FF7F4070B50446B6
:101600000D462946092212025143094A5143084610
:10161000FF30F5307D21C900FEF7DEFD064621468C
:101620007143720888187D21C900FEF7D5FD70BD91
:101630007706000070B504460D46294609221202BD
:101640005143094A51430846FF30F5307D21C90016
:10165000FEF7C2FD06467D21C90061437208881865
:101660003146FEF7B9FD70BD7706000030B500BF0A
:10167000314B9B690124E4032340002BF8D12E4B0E
:101680005B682E4C23402C4C636023465B682C4CDB
:101690002478FF252D04641901256D032C43234371
:1016A000254C636000BF244B9B6940242340002BE2
:1016B000F9D100BF204B9B69DB07DB0F002BF9D072
:1016C0001D4B986200BF1C4B9B6940242340002B9C
:1016D000F9D111E000BF184B9B69DB07DB0F002B32
:1016E000F9D00B78144CA362491C00BF124B9B69C4
:1016F00040242340002BF9D11346541EE2B2002BA4
:10170000E8DC00BF0C4B9B69DB07DB0F002BF9D03B
:10171000094B5B680124A4032343074C636000BFAB
:10172000054B9B6920242340002BF9D0024BDB6939
:101730002343014CE36130BD0054004000F800FF3A
:101740001000002010B500BF2D4A92690123DB0371
:101750001A40002AF8D12A4A52682A4B1A40284BCC
:101760005A601A465268284B1B780124E4051B195D
:10177000A41223431A43224B5A6000BF204A9269A5
:1017800040231A40002AF9D100BF1D4A9269D207AE
:10179000D20F002AF9D01A4A906200BF184A926903
:1017A00040231A40002AF9D100BF154A9269D20796
:1017B000D20F002AF9D0124A916200BF104A9269F2
:1017C00040231A40002AF9D100BF0D4A9269D2077E
:1017D000D20F002AF9D00A4A526801239B031A4308
:1017E000074B5A6000BF064A926920231A40002A1C
:1017F000F9D0034AD2691A43014BDA6110BD0000E7
:101800000054004000F800FF1000002010B5024610
:1018100000BF324880690123DB0318400028F8D15B
:101820002E4840682E4B18402C4B58601846406894
:101830002C4B1B780124E4051B19A41223431843E5
:10184000264B586000BF2548806940231840002877
:10185000F9D100BF21488069C007C00F0028F9D026
:101860001E48826200BF1D4880694023184000283E
:10187000F9D1022014E000BF184B9B69DB07DB0F96
:10188000002BF9D0431E0C461C41E3B2134CA3625B
:1018900000BF124B9B6940242340002BF9D1401E0E
:1018A0000028E8D100BF0D488069C007C00F00289C
:1018B000F9D00A48406801239B031843074B58603E
:1018C00000BF06488069202318400028F9D003484B
:1018D000C0691843014BD86110BD0000005400409E
:1018E00000F800FF1000002010B5002819DB1A4A8C
:1018F00003231B02D21883089B00D2588307DC0EF7
:10190000FF23A3409A438B071B0E8407E40EA340DA
:101910001A43114B032424021B198408A4001A51F2
:1019200018E00E4A03071B0F083B9B089B00D25888
:101930008307DC0EFF23A3409A438B071B0E84070B
:10194000E40EA3401A43054B0407240F083CA408E7
:10195000A4001A5110BD000000E100E01CED00E001
:101960000349088000BF024909880029FBD170475C
:101970000400002010B552200A490870C220FFF769
:1019800035FC094908700120FFF7EEF8002800D166
:1019900010BDFF20F530034948800448FFF78CFD57
:1019A00000BFF5E7100000200E000020204E0000D0
:1019B00010B5524880690121890408434F49886164
:1019C0004F48504988620120C8620846006891214A
:1019D00008434C4908600846C0680121084349494A
:1019E000C8601620002809DB00BF00BFC206D20E67
:1019F00001219140444A116000BF00BF00BF052192
:101A00001620FFF771FF3D48406901218904084312
:101A10003A4948613D480068012108433B49086054
:101A2000364840690903084334494861384800682A
:101A30000A21084336490860084680680F21084398
:101A400033498860084640680321084330494860AC
:101A50000846006A112108432D4908622748C069D9
:101A60000121490508432549C8612A4800692949D7
:101A700008610846006909210843264908610846AB
:101A800000690321090208432249086108460069E8
:101A90000121090408431F49086108460069032120
:101AA000090508431B490861084640680321C9022B
:101AB00088431849486008460068012108431549D1
:101AC00008600E4840690121490408430B494861F8
:101AD0000920C0060068042108430921C9060860DE
:101AE000084600688008800008600846C068022137
:101AF00008430921C906C86010BD0000001002405B
:101B00003F1F00000048014000E100E000040048E1
:101B10000014004800540040FFF74AFF6420FFF71C
:101B20001FFFC820FFF71CFFFEF716FEFEF7D8FDCB
:101B300000210520FEF7F2FD012117A0FEF74FFE60
:101B4000FFF718FF02210520FEF7E8FD002116A08F
:101B5000FEF745FEC220FFF749FB04460021FEF7D1
:101B600011FE18E013480088002814D00020114905
:101B7000088004210120FEF7D1FD00210EA0FEF710
:101B80002EFEFFF701FB04460021FEF7FBFD0021BE
:101B90000CA0FEF724FEE5E7205445535420564C94
:101BA00035334C3058200000205265766973696FD8
:101BB0006E2000000800002052616E67652C206DC9
:101BC0006D203D002020200070B501251C002D0552
:101BD0000C4310D4EC4206D4AC420AD48B4200D061
:101BE00070BD824270BDEB4217D4E94215D48B42DE
:101BF00070BD9B4270BDEC4206D5AC42F9D599420E
:101C000000D070BD904270BD6D005C00EC4204D20B
:101C10004C00EC4201D2994270BD0FB4034C0CBC95
:101C200003BC30B4FEF7CAFB30BC70BD190016040B
:101C300001230200DB050A430DD4DA4203D49A42A1
:101C400007D488427047D84214D4D94212D488426B
:101C5000704780427047DA4203D59A42F9D58142F3
:101C600070475B004200DA4204D24A00DA4201D2F5
:101C70008142704710B5024AFEF7E8FB10BD00BF75
:101C80000900160470B5420064414B005C41120E1D
:101C900039D01B0E38D0FF2A3CD0FF2B3AD040025F
:101CA0004902400A490A060045184E43000A090A3B
:101CB000D2184843ED017F3A0104731A4019190CF8
:101CC0004318990F04D001215B0849075B1A521C85
:101CD000D80904D3401CF50301D19D0607D0FF2A83
:101CE00008D2D50506D0E4072043401970BD012570
:101CF000A843F4E7002A01DCE00770BD2402FF20BE
:101D00002043C00570BD1B0EFF2A03D0FF2B01D05E
:101D1000E00770BDFF2645003606B54206D84D00E7
:101D2000B54203D8D218FF2A00D0E7E7004870BDBB
:101D30000000C07FA83FD30040A1C8DA12817FA471
:101D4000A6D5808D14AF000000000000002F000019
:101D50000007000700147F147F14242A7F2A12C46E
:101D6000C810264636495522500005030000001CC5
:101D70002241000041221C0014083E081408083EBD
:101D800008080000503000101010101000606000B3
:101D90000020100804023E5149453E00427F4000A9
:101DA00042615149462141454B311814127F102799
:101DB000454545393C4A49493001710905033649D1
:101DC000494936064949291E003636000000563674
:101DD00000000814224100141414141400412214A9
:101DE000080201510906324959513E7E1111117EF6
:101DF0007F494949363E414141227F4141221C7F72
:101E0000494949417F090909013E4149497A7F0809
:101E100008087F00417F41002040413F017F0814B6
:101E200022417F404040407F020C027F7F04081027
:101E30007F3E4141413E7F090909063E4151215EF5
:101E40007F09192946464949493101017F01013F6E
:101E50004040403F1F2040201F3F4038403F631418
:101E600008146307087008076151494543007F4122
:101E70004100552A552A550041417F0004020102C4
:101E80000440404040400001020400205454547873
:101E90007F484444383844444420384444487F38D8
:101EA00054545418087E0901020C5252523E7F08C5
:101EB00004047800447D40002040443D007F102809
:101EC000440000417F40007C041804787C0804042E
:101ED0007838444444387C14141408081414187CCA
:101EE0007C080404084854545420043F4440203CD7
:101EF0004040207C1C2040201C3C4030403C44287A
:101F00001028440C5050503C4464544C4400083653
:101F1000410000007F000000413608000402040870
:101F200004000000000000000000000000000000AD
:101F300000000000000000000000000000000000A1
:101F40000000000000000000000000000000000091
:101F50000000000000000000000000000000000081
:101F60000000000000000000000000000000000071
:101F70000000000000000000000000000000000061
:101F80000000000000000000000000000000000051
:101F90000000000000000000000000000000000041
:101FA0000000000000000000000000000000000031
:101FB0000000000000000000000000000000000021
:101FC0000000000000000000000000000000000011
:101FD0000000000000000000000000000000000001
:101FE00000000000000036000000000000000000BB
:101FF00000000000000000003E49494922000000A6
:1020000000000000000000000000000000000000D0
:102010000044457C45440000000000000000000032
:1020200000417F410000447D4000000000000000AE
:1020300000000000000000000000000000000000A0
:102040000000000000000000385444280000000098
:102050000000000000000000000000000000000080
:10206000004A487A40407E1111117E7F494949312A
:102070007F494949367F01010103603E21217F7F6D
:102080004949494163147F146322494949367F1005
:1020900008047F7F1009047F7F081422417C02011D
:1020A000017F7F020C027F7F0808087F3E4141418B
:1020B0003E7F0101017F7F090909063E414141221E
:1020C00001017F0101074848483F1C227F221C6311
:1020D000140814633F20203F60070808087F7F40F2
:1020E0007F407F3F203F207F017F4848307F484826
:1020F000307F7F48484830224949493E7F083E4169
:102100003E462919097F2054545478785454542059
:102110007C545454287C040404006038243860380B
:10212000545454186C107C106C28445454283C406F
:1021300040207C3C4042207C7C10102844601008E9
:10214000047C7C0810087C7C1010107C38444444CB
:10215000387C0404047C7C1414140838444444205F
:1021600004047C04040C5050503C18247C24184473
:10217000281028443C20203C600C1010107C7C402F
:102180007C407C3C203C207C047C4848307C4830AF
:10219000007C7C4848483028445454387C103844EB
:1021A00038582424247C0000C821000800000020A6
:1021B0001000000004010008D821000810000020D1
:1021C0007806000020010008000000000000000068
:0821D000000000000000000007
:040000050800016589
:00000001FF
